{
    "contractName": "VoterRegistration",
    "abi": [
        {
            "inputs": [],
            "stateMutability": "nonpayable",
            "type": "constructor"
        },
        {
            "anonymous": false,
            "inputs": [
                {
                    "indexed": false,
                    "internalType": "uint256",
                    "name": "voterId",
                    "type": "uint256"
                },
                {
                    "indexed": false,
                    "internalType": "string",
                    "name": "name",
                    "type": "string"
                },
                {
                    "indexed": false,
                    "internalType": "string",
                    "name": "aadhar",
                    "type": "string"
                },
                {
                    "indexed": false,
                    "internalType": "string",
                    "name": "ipfsHash",
                    "type": "string"
                }
            ],
            "name": "VoterAdded",
            "type": "event"
        },
        {
            "inputs": [
                {
                    "internalType": "string",
                    "name": "",
                    "type": "string"
                }
            ],
            "name": "aadharRegistered",
            "outputs": [
                {
                    "internalType": "bool",
                    "name": "",
                    "type": "bool"
                }
            ],
            "stateMutability": "view",
            "type": "function"
        },
        {
            "inputs": [],
            "name": "admin",
            "outputs": [
                {
                    "internalType": "address",
                    "name": "",
                    "type": "address"
                }
            ],
            "stateMutability": "view",
            "type": "function"
        },
        {
            "inputs": [],
            "name": "voterCount",
            "outputs": [
                {
                    "internalType": "uint256",
                    "name": "",
                    "type": "uint256"
                }
            ],
            "stateMutability": "view",
            "type": "function"
        },
        {
            "inputs": [
                {
                    "internalType": "uint256",
                    "name": "",
                    "type": "uint256"
                }
            ],
            "name": "voters",
            "outputs": [
                {
                    "internalType": "string",
                    "name": "name",
                    "type": "string"
                },
                {
                    "internalType": "string",
                    "name": "aadhar",
                    "type": "string"
                },
                {
                    "internalType": "string",
                    "name": "ipfsHash",
                    "type": "string"
                },
                {
                    "internalType": "bool",
                    "name": "isRegistered",
                    "type": "bool"
                }
            ],
            "stateMutability": "view",
            "type": "function"
        },
        {
            "inputs": [
                {
                    "internalType": "string",
                    "name": "_name",
                    "type": "string"
                },
                {
                    "internalType": "string",
                    "name": "_aadhar",
                    "type": "string"
                },
                {
                    "internalType": "string",
                    "name": "_ipfsHash",
                    "type": "string"
                }
            ],
            "name": "addVoter",
            "outputs": [],
            "stateMutability": "nonpayable",
            "type": "function"
        },
        {
            "inputs": [
                {
                    "internalType": "uint256",
                    "name": "_voterId",
                    "type": "uint256"
                }
            ],
            "name": "verifyVoter",
            "outputs": [
                {
                    "internalType": "bool",
                    "name": "",
                    "type": "bool"
                }
            ],
            "stateMutability": "view",
            "type": "function"
        }
    ],
    "bytecode": "0x6080604052600060015534801561001557600080fd5b50600080546001600160a01b03191633179055610922806100376000396000f3fe608060405234801561001057600080fd5b50600436106100625760003560e01c80633ec2a0191461006757806342169e481461007c578063a0bd43e514610098578063da58c7d9146100ce578063ef76fef1146100f1578063f851a4401461011f575b600080fd5b61007a61007536600461059b565b61014a565b005b61008560015481565b6040519081526020015b60405180910390f35b6100be6100a6366004610623565b60009081526002602052604090206003015460ff1690565b604051901515815260200161008f565b6100e16100dc366004610623565b610335565b60405161008f949392919061068c565b6100be6100ff3660046106d9565b805160208183018101805160038252928201919093012091525460ff1681565b600054610132906001600160a01b031681565b6040516001600160a01b03909116815260200161008f565b6000546001600160a01b031633146101b45760405162461bcd60e51b815260206004820152602260248201527f4f6e6c792061646d696e2063616e20706572666f726d2074686973206163746960448201526137b760f11b60648201526084015b60405180910390fd5b6003826040516101c49190610716565b9081526040519081900360200190205460ff16156102245760405162461bcd60e51b815260206004820152601960248201527f41616468617220616c726561647920726567697374657265640000000000000060448201526064016101ab565b6001805490600061023483610732565b90915550506040805160808101825284815260208082018590528183018490526001606083018190525460009081526002909152919091208151819061027a90826107e2565b506020820151600182019061028f90826107e2565b50604082015160028201906102a490826107e2565b50606091909101516003918201805460ff1916911515919091179055604051600191906102d2908590610716565b908152604051908190036020018120805492151560ff19909316929092179091556001547f62a0a35015ff987c13b9469e92f54c675b382ccf4b0a0ee7e479430117aa319a9161032891908690869086906108a2565b60405180910390a1505050565b60026020526000908152604090208054819061035090610759565b80601f016020809104026020016040519081016040528092919081815260200182805461037c90610759565b80156103c95780601f1061039e576101008083540402835291602001916103c9565b820191906000526020600020905b8154815290600101906020018083116103ac57829003601f168201915b5050505050908060010180546103de90610759565b80601f016020809104026020016040519081016040528092919081815260200182805461040a90610759565b80156104575780601f1061042c57610100808354040283529160200191610457565b820191906000526020600020905b81548152906001019060200180831161043a57829003601f168201915b50505050509080600201805461046c90610759565b80601f016020809104026020016040519081016040528092919081815260200182805461049890610759565b80156104e55780601f106104ba576101008083540402835291602001916104e5565b820191906000526020600020905b8154815290600101906020018083116104c857829003601f168201915b5050506003909301549192505060ff1684565b634e487b7160e01b600052604160045260246000fd5b600082601f83011261051f57600080fd5b813567ffffffffffffffff8082111561053a5761053a6104f8565b604051601f8301601f19908116603f01168101908282118183101715610562576105626104f8565b8160405283815286602085880101111561057b57600080fd5b836020870160208301376000602085830101528094505050505092915050565b6000806000606084860312156105b057600080fd5b833567ffffffffffffffff808211156105c857600080fd5b6105d48783880161050e565b945060208601359150808211156105ea57600080fd5b6105f68783880161050e565b9350604086013591508082111561060c57600080fd5b506106198682870161050e565b9150509250925092565b60006020828403121561063557600080fd5b5035919050565b60005b8381101561065757818101518382015260200161063f565b50506000910152565b6000815180845261067881602086016020860161063c565b601f01601f19169290920160200192915050565b60808152600061069f6080830187610660565b82810360208401526106b18187610660565b905082810360408401526106c58186610660565b915050821515606083015295945050505050565b6000602082840312156106eb57600080fd5b813567ffffffffffffffff81111561070257600080fd5b61070e8482850161050e565b949350505050565b6000825161072881846020870161063c565b9190910192915050565b60006001820161075257634e487b7160e01b600052601160045260246000fd5b5060010190565b600181811c9082168061076d57607f821691505b60208210810361078d57634e487b7160e01b600052602260045260246000fd5b50919050565b601f8211156107dd57600081815260208120601f850160051c810160208610156107ba5750805b601f850160051c820191505b818110156107d9578281556001016107c6565b5050505b505050565b815167ffffffffffffffff8111156107fc576107fc6104f8565b6108108161080a8454610759565b84610793565b602080601f831160018114610845576000841561082d5750858301515b600019600386901b1c1916600185901b1785556107d9565b600085815260208120601f198616915b8281101561087457888601518255948401946001909101908401610855565b50858210156108925787850151600019600388901b60f8161c191681555b5050505050600190811b01905550565b8481526080602082015260006108bb6080830186610660565b82810360408401526108cd8186610660565b905082810360608401526108e18185610660565b97965050505050505056fea264697066735822122008e7e307ce4f554075cdb44b015ffbb8f74a8d4d7fef98d18a3df8201fcf852564736f6c63430008130033",
    "immutableReferences": {},
    "source": "// SPDX-License-Identifier: MIT\r\npragma solidity ^0.8.19;\r\n\r\ncontract VoterRegistration {\r\n    address public admin;\r\n    uint256 public voterCount = 0;\r\n    \r\n    struct Voter {\r\n        string name;\r\n        string aadhar;\r\n        string ipfsHash;\r\n        bool isRegistered;\r\n    }\r\n\r\n    mapping(uint256 => Voter) public voters;\r\n    mapping(string => bool) public aadharRegistered;\r\n\r\n    event VoterAdded(uint256 voterId, string name, string aadhar, string ipfsHash);\r\n\r\n    constructor() {\r\n        admin = msg.sender;\r\n    }\r\n\r\n    modifier onlyAdmin() {\r\n        require(msg.sender == admin, \"Only admin can perform this action\");\r\n        _;\r\n    }\r\n\r\n    function addVoter(\r\n        string memory _name,\r\n        string memory _aadhar,\r\n        string memory _ipfsHash \r\n    ) public onlyAdmin {\r\n        require(!aadharRegistered[_aadhar], \"Aadhar already registered\");\r\n        \r\n        voterCount++;\r\n        voters[voterCount] = Voter(_name, _aadhar, _ipfsHash, true);\r\n        aadharRegistered[_aadhar] = true;\r\n        \r\n        emit VoterAdded(voterCount, _name, _aadhar, _ipfsHash);\r\n    }\r\n\r\n    function verifyVoter(uint256 _voterId) public view returns (bool) {\r\n        return voters[_voterId].isRegistered;\r\n    }\r\n}",
    "sourcePath": "C:\\Users\\kumar\\Desktop\\New folder\\exp\\blockchain-voter-id\\contracts\\contracts\\VoterRegistration.sol",
    "compiler": {
        "name": "solc",
        "version": "0.8.19+commit.7dd6d404.Emscripten.clang"
    },
    "schemaVersion": "3.4.16",
    "updatedAt": "2025-01-31T12:58:35.276Z",
    "devdoc": {
        "kind": "dev",
        "methods": {},
        "version": 1
    },
    "userdoc": {
        "kind": "user",
        "methods": {},
        "version": 1
    }
}