{
  "contractName": "VoterRegistration",
  "abi": [
    {
      "inputs": [],
      "stateMutability": "nonpayable",
      "type": "constructor"
    },
    {
      "anonymous": false,
      "inputs": [
        {
          "indexed": false,
          "internalType": "uint256",
          "name": "voterId",
          "type": "uint256"
        },
        {
          "indexed": false,
          "internalType": "string",
          "name": "name",
          "type": "string"
        },
        {
          "indexed": false,
          "internalType": "string",
          "name": "aadhar",
          "type": "string"
        },
        {
          "indexed": false,
          "internalType": "string",
          "name": "ipfsHash",
          "type": "string"
        }
      ],
      "name": "VoterAdded",
      "type": "event"
    },
    {
      "inputs": [
        {
          "internalType": "string",
          "name": "",
          "type": "string"
        }
      ],
      "name": "aadharRegistered",
      "outputs": [
        {
          "internalType": "bool",
          "name": "",
          "type": "bool"
        }
      ],
      "stateMutability": "view",
      "type": "function",
      "constant": true
    },
    {
      "inputs": [],
      "name": "voterCount",
      "outputs": [
        {
          "internalType": "uint256",
          "name": "",
          "type": "uint256"
        }
      ],
      "stateMutability": "view",
      "type": "function",
      "constant": true
    },
    {
      "inputs": [
        {
          "internalType": "uint256",
          "name": "",
          "type": "uint256"
        }
      ],
      "name": "voters",
      "outputs": [
        {
          "internalType": "string",
          "name": "name",
          "type": "string"
        },
        {
          "internalType": "string",
          "name": "aadhar",
          "type": "string"
        },
        {
          "internalType": "string",
          "name": "ipfsHash",
          "type": "string"
        },
        {
          "internalType": "bool",
          "name": "isRegistered",
          "type": "bool"
        }
      ],
      "stateMutability": "view",
      "type": "function",
      "constant": true
    },
    {
      "inputs": [
        {
          "internalType": "string",
          "name": "_name",
          "type": "string"
        },
        {
          "internalType": "string",
          "name": "_aadhar",
          "type": "string"
        },
        {
          "internalType": "string",
          "name": "_ipfsHash",
          "type": "string"
        }
      ],
      "name": "addVoter",
      "outputs": [],
      "stateMutability": "nonpayable",
      "type": "function"
    },
    {
      "inputs": [
        {
          "internalType": "uint256",
          "name": "_voterId",
          "type": "uint256"
        }
      ],
      "name": "verifyVoter",
      "outputs": [
        {
          "internalType": "bool",
          "name": "",
          "type": "bool"
        }
      ],
      "stateMutability": "view",
      "type": "function",
      "constant": true
    }
  ],
  "bytecode": "0x60806040526000805534801561001457600080fd5b50610884806100246000396000f3fe608060405234801561001057600080fd5b50600436106100575760003560e01c80633ec2a0191461005c57806342169e4814610071578063a0bd43e51461008d578063da58c7d9146100c3578063ef76fef1146100e6575b600080fd5b61006f61006a3660046104fd565b610114565b005b61007a60005481565b6040519081526020015b60405180910390f35b6100b361009b366004610585565b60009081526001602052604090206003015460ff1690565b6040519015158152602001610084565b6100d66100d1366004610585565b610297565b60405161008494939291906105ee565b6100b36100f436600461063b565b805160208183018101805160028252928201919093012091525460ff1681565b6002826040516101249190610678565b9081526040519081900360200190205460ff16156101885760405162461bcd60e51b815260206004820152601960248201527f41616468617220616c7265616479207265676973746572656400000000000000604482015260640160405180910390fd5b60008054908061019783610694565b9091555050604080516080810182528481526020808201859052818301849052600160608301819052600080548152915291909120815181906101da9082610744565b50602082015160018201906101ef9082610744565b50604082015160028201906102049082610744565b50606091909101516003909101805460ff1916911515919091179055604051600190600290610234908590610678565b908152604051908190036020018120805492151560ff19909316929092179091556000547f62a0a35015ff987c13b9469e92f54c675b382ccf4b0a0ee7e479430117aa319a9161028a9190869086908690610804565b60405180910390a1505050565b6001602052600090815260409020805481906102b2906106bb565b80601f01602080910402602001604051908101604052809291908181526020018280546102de906106bb565b801561032b5780601f106103005761010080835404028352916020019161032b565b820191906000526020600020905b81548152906001019060200180831161030e57829003601f168201915b505050505090806001018054610340906106bb565b80601f016020809104026020016040519081016040528092919081815260200182805461036c906106bb565b80156103b95780601f1061038e576101008083540402835291602001916103b9565b820191906000526020600020905b81548152906001019060200180831161039c57829003601f168201915b5050505050908060020180546103ce906106bb565b80601f01602080910402602001604051908101604052809291908181526020018280546103fa906106bb565b80156104475780601f1061041c57610100808354040283529160200191610447565b820191906000526020600020905b81548152906001019060200180831161042a57829003601f168201915b5050506003909301549192505060ff1684565b634e487b7160e01b600052604160045260246000fd5b600082601f83011261048157600080fd5b813567ffffffffffffffff8082111561049c5761049c61045a565b604051601f8301601f19908116603f011681019082821181831017156104c4576104c461045a565b816040528381528660208588010111156104dd57600080fd5b836020870160208301376000602085830101528094505050505092915050565b60008060006060848603121561051257600080fd5b833567ffffffffffffffff8082111561052a57600080fd5b61053687838801610470565b9450602086013591508082111561054c57600080fd5b61055887838801610470565b9350604086013591508082111561056e57600080fd5b5061057b86828701610470565b9150509250925092565b60006020828403121561059757600080fd5b5035919050565b60005b838110156105b95781810151838201526020016105a1565b50506000910152565b600081518084526105da81602086016020860161059e565b601f01601f19169290920160200192915050565b60808152600061060160808301876105c2565b828103602084015261061381876105c2565b9050828103604084015261062781866105c2565b915050821515606083015295945050505050565b60006020828403121561064d57600080fd5b813567ffffffffffffffff81111561066457600080fd5b61067084828501610470565b949350505050565b6000825161068a81846020870161059e565b9190910192915050565b6000600182016106b457634e487b7160e01b600052601160045260246000fd5b5060010190565b600181811c908216806106cf57607f821691505b6020821081036106ef57634e487b7160e01b600052602260045260246000fd5b50919050565b601f82111561073f57600081815260208120601f850160051c8101602086101561071c5750805b601f850160051c820191505b8181101561073b57828155600101610728565b5050505b505050565b815167ffffffffffffffff81111561075e5761075e61045a565b6107728161076c84546106bb565b846106f5565b602080601f8311600181146107a7576000841561078f5750858301515b600019600386901b1c1916600185901b17855561073b565b600085815260208120601f198616915b828110156107d6578886015182559484019460019091019084016107b7565b50858210156107f45787850151600019600388901b60f8161c191681555b5050505050600190811b01905550565b84815260806020820152600061081d60808301866105c2565b828103604084015261082f81866105c2565b9050828103606084015261084381856105c2565b97965050505050505056fea26469706673582212201c7362dcd7a70c5ecb8be3fc54721b41f1211194d6edd0be174261741956bfc264736f6c63430008130033",
  "immutableReferences": {},
  "source": "// SPDX-License-Identifier: MIT \r\npragma solidity ^0.8.19;\r\n\r\ncontract VoterRegistration {\r\n    uint256 public voterCount = 0;\r\n    \r\n    struct Voter {\r\n        string name;\r\n        string aadhar;\r\n        string ipfsHash;\r\n        bool isRegistered;\r\n    }\r\n\r\n    mapping(uint256 => Voter) public voters;\r\n    mapping(string => bool) public aadharRegistered;\r\n\r\n    event VoterAdded(uint256 voterId, string name, string aadhar, string ipfsHash);\r\n\r\n    // The constructor no longer sets an admin\r\n    constructor() {}\r\n\r\n    // Anyone can call addVoter now\r\n    function addVoter(\r\n        string memory _name,\r\n        string memory _aadhar,\r\n        string memory _ipfsHash \r\n    ) public {\r\n        require(!aadharRegistered[_aadhar], \"Aadhar already registered\");\r\n        \r\n        voterCount++;\r\n        voters[voterCount] = Voter(_name, _aadhar, _ipfsHash, true);\r\n        aadharRegistered[_aadhar] = true;\r\n        \r\n        emit VoterAdded(voterCount, _name, _aadhar, _ipfsHash);\r\n    }\r\n\r\n    function verifyVoter(uint256 _voterId) public view returns (bool) {\r\n        return voters[_voterId].isRegistered;\r\n    }\r\n}\r\n",
  "sourcePath": "C:\\Users\\kumar\\Desktop\\New folder\\exp\\blockchain-voter-id\\contracts\\contracts\\VoterRegistration.sol",
  "compiler": {
    "name": "solc",
    "version": "0.8.19+commit.7dd6d404.Emscripten.clang"
  },
  "schemaVersion": "3.4.16",
  "updatedAt": "2025-02-07T16:15:28.434Z",
  "networkType": "ethereum",
  "devdoc": {
    "kind": "dev",
    "methods": {},
    "version": 1
  },
  "userdoc": {
    "kind": "user",
    "methods": {},
    "version": 1
  }
}